{
	"data": {
		"bytecode": {
			"linkReferences": {},
			"object": "6080604052348015600e575f5ffd5b506102888061001c5f395ff3fe608060405234801561000f575f5ffd5b5060043610610029575f3560e01c8063850944521461002d575b5f5ffd5b6100476004803603810190610042919061013f565b610049565b005b3373ffffffffffffffffffffffffffffffffffffffff1683857f1a738e19faa1f716c2eff2f36913b10b5a3587b2b4f6b4974873cf96d18e01b442868660405161009593929190610222565b60405180910390a450505050565b5f5ffd5b5f5ffd5b5f819050919050565b6100bd816100ab565b81146100c7575f5ffd5b50565b5f813590506100d8816100b4565b92915050565b5f5ffd5b5f5ffd5b5f5ffd5b5f5f83601f8401126100ff576100fe6100de565b5b8235905067ffffffffffffffff81111561011c5761011b6100e2565b5b602083019150836001820283011115610138576101376100e6565b5b9250929050565b5f5f5f5f60608587031215610157576101566100a3565b5b5f610164878288016100ca565b9450506020610175878288016100ca565b935050604085013567ffffffffffffffff811115610196576101956100a7565b5b6101a2878288016100ea565b925092505092959194509250565b5f819050919050565b6101c2816101b0565b82525050565b5f82825260208201905092915050565b828183375f83830152505050565b5f601f19601f8301169050919050565b5f61020183856101c8565b935061020e8385846101d8565b610217836101e6565b840190509392505050565b5f6040820190506102355f8301866101b9565b81810360208301526102488184866101f6565b905094935050505056fea26469706673582212208776a6bb40f7d9ef976c49e11643a04abababeaa5fb0eb2e618f8b4fbb3d402964736f6c634300081e0033",
			"opcodes": "PUSH1 0x80 PUSH1 0x40 MSTORE CALLVALUE DUP1 ISZERO PUSH1 0xE JUMPI PUSH0 PUSH0 REVERT JUMPDEST POP PUSH2 0x288 DUP1 PUSH2 0x1C PUSH0 CODECOPY PUSH0 RETURN INVALID PUSH1 0x80 PUSH1 0x40 MSTORE CALLVALUE DUP1 ISZERO PUSH2 0xF JUMPI PUSH0 PUSH0 REVERT JUMPDEST POP PUSH1 0x4 CALLDATASIZE LT PUSH2 0x29 JUMPI PUSH0 CALLDATALOAD PUSH1 0xE0 SHR DUP1 PUSH4 0x85094452 EQ PUSH2 0x2D JUMPI JUMPDEST PUSH0 PUSH0 REVERT JUMPDEST PUSH2 0x47 PUSH1 0x4 DUP1 CALLDATASIZE SUB DUP2 ADD SWAP1 PUSH2 0x42 SWAP2 SWAP1 PUSH2 0x13F JUMP JUMPDEST PUSH2 0x49 JUMP JUMPDEST STOP JUMPDEST CALLER PUSH20 0xFFFFFFFFFFFFFFFFFFFFFFFFFFFFFFFFFFFFFFFF AND DUP4 DUP6 PUSH32 0x1A738E19FAA1F716C2EFF2F36913B10B5A3587B2B4F6B4974873CF96D18E01B4 TIMESTAMP DUP7 DUP7 PUSH1 0x40 MLOAD PUSH2 0x95 SWAP4 SWAP3 SWAP2 SWAP1 PUSH2 0x222 JUMP JUMPDEST PUSH1 0x40 MLOAD DUP1 SWAP2 SUB SWAP1 LOG4 POP POP POP POP JUMP JUMPDEST PUSH0 PUSH0 REVERT JUMPDEST PUSH0 PUSH0 REVERT JUMPDEST PUSH0 DUP2 SWAP1 POP SWAP2 SWAP1 POP JUMP JUMPDEST PUSH2 0xBD DUP2 PUSH2 0xAB JUMP JUMPDEST DUP2 EQ PUSH2 0xC7 JUMPI PUSH0 PUSH0 REVERT JUMPDEST POP JUMP JUMPDEST PUSH0 DUP2 CALLDATALOAD SWAP1 POP PUSH2 0xD8 DUP2 PUSH2 0xB4 JUMP JUMPDEST SWAP3 SWAP2 POP POP JUMP JUMPDEST PUSH0 PUSH0 REVERT JUMPDEST PUSH0 PUSH0 REVERT JUMPDEST PUSH0 PUSH0 REVERT JUMPDEST PUSH0 PUSH0 DUP4 PUSH1 0x1F DUP5 ADD SLT PUSH2 0xFF JUMPI PUSH2 0xFE PUSH2 0xDE JUMP JUMPDEST JUMPDEST DUP3 CALLDATALOAD SWAP1 POP PUSH8 0xFFFFFFFFFFFFFFFF DUP2 GT ISZERO PUSH2 0x11C JUMPI PUSH2 0x11B PUSH2 0xE2 JUMP JUMPDEST JUMPDEST PUSH1 0x20 DUP4 ADD SWAP2 POP DUP4 PUSH1 0x1 DUP3 MUL DUP4 ADD GT ISZERO PUSH2 0x138 JUMPI PUSH2 0x137 PUSH2 0xE6 JUMP JUMPDEST JUMPDEST SWAP3 POP SWAP3 SWAP1 POP JUMP JUMPDEST PUSH0 PUSH0 PUSH0 PUSH0 PUSH1 0x60 DUP6 DUP8 SUB SLT ISZERO PUSH2 0x157 JUMPI PUSH2 0x156 PUSH2 0xA3 JUMP JUMPDEST JUMPDEST PUSH0 PUSH2 0x164 DUP8 DUP3 DUP9 ADD PUSH2 0xCA JUMP JUMPDEST SWAP5 POP POP PUSH1 0x20 PUSH2 0x175 DUP8 DUP3 DUP9 ADD PUSH2 0xCA JUMP JUMPDEST SWAP4 POP POP PUSH1 0x40 DUP6 ADD CALLDATALOAD PUSH8 0xFFFFFFFFFFFFFFFF DUP2 GT ISZERO PUSH2 0x196 JUMPI PUSH2 0x195 PUSH2 0xA7 JUMP JUMPDEST JUMPDEST PUSH2 0x1A2 DUP8 DUP3 DUP9 ADD PUSH2 0xEA JUMP JUMPDEST SWAP3 POP SWAP3 POP POP SWAP3 SWAP6 SWAP2 SWAP5 POP SWAP3 POP JUMP JUMPDEST PUSH0 DUP2 SWAP1 POP SWAP2 SWAP1 POP JUMP JUMPDEST PUSH2 0x1C2 DUP2 PUSH2 0x1B0 JUMP JUMPDEST DUP3 MSTORE POP POP JUMP JUMPDEST PUSH0 DUP3 DUP3 MSTORE PUSH1 0x20 DUP3 ADD SWAP1 POP SWAP3 SWAP2 POP POP JUMP JUMPDEST DUP3 DUP2 DUP4 CALLDATACOPY PUSH0 DUP4 DUP4 ADD MSTORE POP POP POP JUMP JUMPDEST PUSH0 PUSH1 0x1F NOT PUSH1 0x1F DUP4 ADD AND SWAP1 POP SWAP2 SWAP1 POP JUMP JUMPDEST PUSH0 PUSH2 0x201 DUP4 DUP6 PUSH2 0x1C8 JUMP JUMPDEST SWAP4 POP PUSH2 0x20E DUP4 DUP6 DUP5 PUSH2 0x1D8 JUMP JUMPDEST PUSH2 0x217 DUP4 PUSH2 0x1E6 JUMP JUMPDEST DUP5 ADD SWAP1 POP SWAP4 SWAP3 POP POP POP JUMP JUMPDEST PUSH0 PUSH1 0x40 DUP3 ADD SWAP1 POP PUSH2 0x235 PUSH0 DUP4 ADD DUP7 PUSH2 0x1B9 JUMP JUMPDEST DUP2 DUP2 SUB PUSH1 0x20 DUP4 ADD MSTORE PUSH2 0x248 DUP2 DUP5 DUP7 PUSH2 0x1F6 JUMP JUMPDEST SWAP1 POP SWAP5 SWAP4 POP POP POP POP JUMP INVALID LOG2 PUSH5 0x6970667358 0x22 SLT KECCAK256 DUP8 PUSH23 0xA6BB40F7D9EF976C49E11643A04ABABABEAA5FB0EB2E61 DUP16 DUP12 0x4F 0xBB RETURNDATASIZE BLOCKHASH 0x29 PUSH5 0x736F6C6343 STOP ADDMOD 0x1E STOP CALLER "
		},
		"gasEstimates": {
			"creation": {
				"codeDepositCost": "129600",
				"executionCost": "175",
				"totalCost": "129775"
			},
			"external": {
				"anchor(bytes32,bytes32,string)": "infinite"
			}
		},
		"methodIdentifiers": {
			"anchor(bytes32,bytes32,string)": "85094452"
		}
	},
	"abi": [
		{
			"anonymous": false,
			"inputs": [
				{
					"indexed": true,
					"internalType": "bytes32",
					"name": "recordHash",
					"type": "bytes32"
				},
				{
					"indexed": true,
					"internalType": "bytes32",
					"name": "recordId",
					"type": "bytes32"
				},
				{
					"indexed": true,
					"internalType": "address",
					"name": "owner",
					"type": "address"
				},
				{
					"indexed": false,
					"internalType": "uint256",
					"name": "timestamp",
					"type": "uint256"
				},
				{
					"indexed": false,
					"internalType": "string",
					"name": "meta",
					"type": "string"
				}
			],
			"name": "Anchored",
			"type": "event"
		},
		{
			"inputs": [
				{
					"internalType": "bytes32",
					"name": "recordHash",
					"type": "bytes32"
				},
				{
					"internalType": "bytes32",
					"name": "recordId",
					"type": "bytes32"
				},
				{
					"internalType": "string",
					"name": "meta",
					"type": "string"
				}
			],
			"name": "anchor",
			"outputs": [],
			"stateMutability": "nonpayable",
			"type": "function"
		}
	]
}