{
	"data": {
		"bytecode": {
			"linkReferences": {},
			"object": "6080604052348015600e575f5ffd5b5061022c8061001c5f395ff3fe608060405234801561000f575f5ffd5b5060043610610029575f3560e01c80637328d5691461002d575b5f5ffd5b61004760048036038101906100429190610149565b610049565b005b8273ffffffffffffffffffffffffffffffffffffffff168473ffffffffffffffffffffffffffffffffffffffff16867ff7cdeae600171136f77d3df848176c47ce8102a3be1a47edcfda2b7b892fe30185856040516100a99291906101cf565b60405180910390a45050505050565b5f5ffd5b5f819050919050565b6100ce816100bc565b81146100d8575f5ffd5b50565b5f813590506100e9816100c5565b92915050565b5f73ffffffffffffffffffffffffffffffffffffffff82169050919050565b5f610118826100ef565b9050919050565b6101288161010e565b8114610132575f5ffd5b50565b5f813590506101438161011f565b92915050565b5f5f5f5f5f60a08688031215610162576101616100b8565b5b5f61016f888289016100db565b955050602061018088828901610135565b945050604061019188828901610135565b93505060606101a2888289016100db565b92505060806101b3888289016100db565b9150509295509295909350565b6101c9816100bc565b82525050565b5f6040820190506101e25f8301856101c0565b6101ef60208301846101c0565b939250505056fea26469706673582212209d717dab584909f6fa0239581a0fbbf052b38902605f7e593822b32b75f6a02d64736f6c634300081e0033",
			"opcodes": "PUSH1 0x80 PUSH1 0x40 MSTORE CALLVALUE DUP1 ISZERO PUSH1 0xE JUMPI PUSH0 PUSH0 REVERT JUMPDEST POP PUSH2 0x22C DUP1 PUSH2 0x1C PUSH0 CODECOPY PUSH0 RETURN INVALID PUSH1 0x80 PUSH1 0x40 MSTORE CALLVALUE DUP1 ISZERO PUSH2 0xF JUMPI PUSH0 PUSH0 REVERT JUMPDEST POP PUSH1 0x4 CALLDATASIZE LT PUSH2 0x29 JUMPI PUSH0 CALLDATALOAD PUSH1 0xE0 SHR DUP1 PUSH4 0x7328D569 EQ PUSH2 0x2D JUMPI JUMPDEST PUSH0 PUSH0 REVERT JUMPDEST PUSH2 0x47 PUSH1 0x4 DUP1 CALLDATASIZE SUB DUP2 ADD SWAP1 PUSH2 0x42 SWAP2 SWAP1 PUSH2 0x149 JUMP JUMPDEST PUSH2 0x49 JUMP JUMPDEST STOP JUMPDEST DUP3 PUSH20 0xFFFFFFFFFFFFFFFFFFFFFFFFFFFFFFFFFFFFFFFF AND DUP5 PUSH20 0xFFFFFFFFFFFFFFFFFFFFFFFFFFFFFFFFFFFFFFFF AND DUP7 PUSH32 0xF7CDEAE600171136F77D3DF848176C47CE8102A3BE1A47EDCFDA2B7B892FE301 DUP6 DUP6 PUSH1 0x40 MLOAD PUSH2 0xA9 SWAP3 SWAP2 SWAP1 PUSH2 0x1CF JUMP JUMPDEST PUSH1 0x40 MLOAD DUP1 SWAP2 SUB SWAP1 LOG4 POP POP POP POP POP JUMP JUMPDEST PUSH0 PUSH0 REVERT JUMPDEST PUSH0 DUP2 SWAP1 POP SWAP2 SWAP1 POP JUMP JUMPDEST PUSH2 0xCE DUP2 PUSH2 0xBC JUMP JUMPDEST DUP2 EQ PUSH2 0xD8 JUMPI PUSH0 PUSH0 REVERT JUMPDEST POP JUMP JUMPDEST PUSH0 DUP2 CALLDATALOAD SWAP1 POP PUSH2 0xE9 DUP2 PUSH2 0xC5 JUMP JUMPDEST SWAP3 SWAP2 POP POP JUMP JUMPDEST PUSH0 PUSH20 0xFFFFFFFFFFFFFFFFFFFFFFFFFFFFFFFFFFFFFFFF DUP3 AND SWAP1 POP SWAP2 SWAP1 POP JUMP JUMPDEST PUSH0 PUSH2 0x118 DUP3 PUSH2 0xEF JUMP JUMPDEST SWAP1 POP SWAP2 SWAP1 POP JUMP JUMPDEST PUSH2 0x128 DUP2 PUSH2 0x10E JUMP JUMPDEST DUP2 EQ PUSH2 0x132 JUMPI PUSH0 PUSH0 REVERT JUMPDEST POP JUMP JUMPDEST PUSH0 DUP2 CALLDATALOAD SWAP1 POP PUSH2 0x143 DUP2 PUSH2 0x11F JUMP JUMPDEST SWAP3 SWAP2 POP POP JUMP JUMPDEST PUSH0 PUSH0 PUSH0 PUSH0 PUSH0 PUSH1 0xA0 DUP7 DUP9 SUB SLT ISZERO PUSH2 0x162 JUMPI PUSH2 0x161 PUSH2 0xB8 JUMP JUMPDEST JUMPDEST PUSH0 PUSH2 0x16F DUP9 DUP3 DUP10 ADD PUSH2 0xDB JUMP JUMPDEST SWAP6 POP POP PUSH1 0x20 PUSH2 0x180 DUP9 DUP3 DUP10 ADD PUSH2 0x135 JUMP JUMPDEST SWAP5 POP POP PUSH1 0x40 PUSH2 0x191 DUP9 DUP3 DUP10 ADD PUSH2 0x135 JUMP JUMPDEST SWAP4 POP POP PUSH1 0x60 PUSH2 0x1A2 DUP9 DUP3 DUP10 ADD PUSH2 0xDB JUMP JUMPDEST SWAP3 POP POP PUSH1 0x80 PUSH2 0x1B3 DUP9 DUP3 DUP10 ADD PUSH2 0xDB JUMP JUMPDEST SWAP2 POP POP SWAP3 SWAP6 POP SWAP3 SWAP6 SWAP1 SWAP4 POP JUMP JUMPDEST PUSH2 0x1C9 DUP2 PUSH2 0xBC JUMP JUMPDEST DUP3 MSTORE POP POP JUMP JUMPDEST PUSH0 PUSH1 0x40 DUP3 ADD SWAP1 POP PUSH2 0x1E2 PUSH0 DUP4 ADD DUP6 PUSH2 0x1C0 JUMP JUMPDEST PUSH2 0x1EF PUSH1 0x20 DUP4 ADD DUP5 PUSH2 0x1C0 JUMP JUMPDEST SWAP4 SWAP3 POP POP POP JUMP INVALID LOG2 PUSH5 0x6970667358 0x22 SLT KECCAK256 SWAP14 PUSH18 0x7DAB584909F6FA0239581A0FBBF052B38902 PUSH1 0x5F PUSH31 0x593822B32B75F6A02D64736F6C634300081E00330000000000000000000000 "
		},
		"gasEstimates": {
			"creation": {
				"codeDepositCost": "111200",
				"executionCost": "157",
				"totalCost": "111357"
			},
			"external": {
				"recordTrade(uint256,address,address,uint256,uint256)": "infinite"
			}
		},
		"methodIdentifiers": {
			"recordTrade(uint256,address,address,uint256,uint256)": "7328d569"
		}
	},
	"abi": [
		{
			"anonymous": false,
			"inputs": [
				{
					"indexed": true,
					"internalType": "uint256",
					"name": "tradeId",
					"type": "uint256"
				},
				{
					"indexed": true,
					"internalType": "address",
					"name": "seller",
					"type": "address"
				},
				{
					"indexed": true,
					"internalType": "address",
					"name": "buyer",
					"type": "address"
				},
				{
					"indexed": false,
					"internalType": "uint256",
					"name": "energyAmountKwh",
					"type": "uint256"
				},
				{
					"indexed": false,
					"internalType": "uint256",
					"name": "pricePerKwh",
					"type": "uint256"
				}
			],
			"name": "TradeCreated",
			"type": "event"
		},
		{
			"inputs": [
				{
					"internalType": "uint256",
					"name": "_tradeId",
					"type": "uint256"
				},
				{
					"internalType": "address",
					"name": "_seller",
					"type": "address"
				},
				{
					"internalType": "address",
					"name": "_buyer",
					"type": "address"
				},
				{
					"internalType": "uint256",
					"name": "_energyAmountKwh",
					"type": "uint256"
				},
				{
					"internalType": "uint256",
					"name": "_pricePerKwh",
					"type": "uint256"
				}
			],
			"name": "recordTrade",
			"outputs": [],
			"stateMutability": "nonpayable",
			"type": "function"
		}
	]
}